{
  "contractName": "GCPPOLYapi",
  "abi": [
    {
      "inputs": [],
      "stateMutability": "nonpayable",
      "type": "constructor"
    },
    {
      "anonymous": false,
      "inputs": [
        {
          "indexed": true,
          "internalType": "bytes32",
          "name": "id",
          "type": "bytes32"
        }
      ],
      "name": "ChainlinkCancelled",
      "type": "event"
    },
    {
      "anonymous": false,
      "inputs": [
        {
          "indexed": true,
          "internalType": "bytes32",
          "name": "id",
          "type": "bytes32"
        }
      ],
      "name": "ChainlinkFulfilled",
      "type": "event"
    },
    {
      "anonymous": false,
      "inputs": [
        {
          "indexed": true,
          "internalType": "bytes32",
          "name": "id",
          "type": "bytes32"
        }
      ],
      "name": "ChainlinkRequested",
      "type": "event"
    },
    {
      "inputs": [],
      "name": "durationInSeconds",
      "outputs": [
        {
          "internalType": "uint256",
          "name": "",
          "type": "uint256"
        }
      ],
      "stateMutability": "view",
      "type": "function"
    },
    {
      "inputs": [],
      "name": "volume",
      "outputs": [
        {
          "internalType": "uint256",
          "name": "",
          "type": "uint256"
        }
      ],
      "stateMutability": "view",
      "type": "function"
    },
    {
      "inputs": [],
      "name": "requestVolumeData",
      "outputs": [
        {
          "internalType": "bytes32",
          "name": "requestId",
          "type": "bytes32"
        }
      ],
      "stateMutability": "nonpayable",
      "type": "function"
    },
    {
      "inputs": [
        {
          "internalType": "bytes32",
          "name": "_requestId",
          "type": "bytes32"
        },
        {
          "internalType": "uint256",
          "name": "_volume",
          "type": "uint256"
        }
      ],
      "name": "fulfill",
      "outputs": [],
      "stateMutability": "nonpayable",
      "type": "function"
    },
    {
      "inputs": [],
      "name": "withdrawLink",
      "outputs": [],
      "stateMutability": "nonpayable",
      "type": "function"
    }
  ],
  "bytecode": "0x6080604052600160045534801561001557600080fd5b506100246100bb60201b60201c565b732f90a6d021db21e1b2a077c5a37b3c7e75d15b7e600760006101000a81548173ffffffffffffffffffffffffffffffffffffffff021916908373ffffffffffffffffffffffffffffffffffffffff1602179055507f323966613961613133626631343638373838623763633461353030613435623860088190555067016345785d8a0000600981905550600a80819055506101a4565b61015e73c89bd4e1632d3a43cb03aaad5262cbe4038bc57173ffffffffffffffffffffffffffffffffffffffff166338cc48316040518163ffffffff1660e01b815260040160206040518083038186803b15801561011857600080fd5b505afa15801561012c573d6000803e3d6000fd5b505050506040513d602081101561014257600080fd5b810190808051906020019092919050505061016060201b60201c565b565b80600260006101000a81548173ffffffffffffffffffffffffffffffffffffffff021916908373ffffffffffffffffffffffffffffffffffffffff16021790555050565b611200806101b36000396000f3fe608060405234801561001057600080fd5b50600436106100575760003560e01c80634357855e1461005c5780634e8602bd146100945780636021abac146100b25780638dc654a2146100d0578063c618a1e4146100da575b600080fd5b6100926004803603604081101561007257600080fd5b8101908080359060200190929190803590602001909291905050506100f8565b005b61009c61021f565b6040518082815260200191505060405180910390f35b6100ba610225565b6040518082815260200191505060405180910390f35b6100d8610419565b005b6100e26105e7565b6040518082815260200191505060405180910390f35b816005600082815260200190815260200160002060009054906101000a900473ffffffffffffffffffffffffffffffffffffffff1673ffffffffffffffffffffffffffffffffffffffff163373ffffffffffffffffffffffffffffffffffffffff16146101b0576040517f08c379a00000000000000000000000000000000000000000000000000000000081526004018080602001828103825260288152602001806111a36028913960400191505060405180910390fd5b6005600082815260200190815260200160002060006101000a81549073ffffffffffffffffffffffffffffffffffffffff0219169055807f7cc135e0cebb02c3480ae5d74d377283180a2601f8f644edf7987b009316c63a60405160405180910390a281600681905550505050565b600a5481565b600061022f6110f8565b61024360085430634357855e60e01b6105ed565b90506102936040518060400160405280600581526020017f756e74696c000000000000000000000000000000000000000000000000000000815250600a5442018361061e9092919063ffffffff16565b6103126040518060400160405280600381526020017f67657400000000000000000000000000000000000000000000000000000000008152506040518060400160405280601681526020017f687474703a2f2f73696c6b616e6473696c742e636f6d00000000000000000000815250836106519092919063ffffffff16565b6103916040518060400160405280600481526020017f70617468000000000000000000000000000000000000000000000000000000008152506040518060400160405280600181526020017f2f00000000000000000000000000000000000000000000000000000000000000815250836106519092919063ffffffff16565b60006298968090506103e36040518060400160405280600581526020017f74696d657300000000000000000000000000000000000000000000000000000081525082846106849092919063ffffffff16565b610412600760009054906101000a900473ffffffffffffffffffffffffffffffffffffffff16836009546106b7565b9250505090565b6000610423610940565b90508073ffffffffffffffffffffffffffffffffffffffff1663a9059cbb338373ffffffffffffffffffffffffffffffffffffffff166370a08231306040518263ffffffff1660e01b8152600401808273ffffffffffffffffffffffffffffffffffffffff16815260200191505060206040518083038186803b1580156104a957600080fd5b505afa1580156104bd573d6000803e3d6000fd5b505050506040513d60208110156104d357600080fd5b81019080805190602001909291905050506040518363ffffffff1660e01b8152600401808373ffffffffffffffffffffffffffffffffffffffff16815260200182815260200192505050602060405180830381600087803b15801561053757600080fd5b505af115801561054b573d6000803e3d6000fd5b505050506040513d602081101561056157600080fd5b81019080805190602001909291905050506105e4576040517f08c379a00000000000000000000000000000000000000000000000000000000081526004018080602001828103825260128152602001807f556e61626c6520746f207472616e73666572000000000000000000000000000081525060200191505060405180910390fd5b50565b60065481565b6105f56110f8565b6105fd6110f8565b6106148585858461096a909392919063ffffffff16565b9150509392505050565b610635828460800151610a1a90919063ffffffff16565b61064c818460800151610a3f90919063ffffffff16565b505050565b610668828460800151610a1a90919063ffffffff16565b61067f818460800151610a1a90919063ffffffff16565b505050565b61069b828460800151610a1a90919063ffffffff16565b6106b2818460800151610a4f90919063ffffffff16565b505050565b600030600454604051602001808373ffffffffffffffffffffffffffffffffffffffff1660601b815260140182815260200192505050604051602081830303815290604052805190602001209050600454836060018181525050836005600083815260200190815260200160002060006101000a81548173ffffffffffffffffffffffffffffffffffffffff021916908373ffffffffffffffffffffffffffffffffffffffff160217905550807fb5e6e01e79f91267dc17b4e6314d5d4d03593d2ceee0fbb452b750bd70ea5af960405160405180910390a2600260009054906101000a900473ffffffffffffffffffffffffffffffffffffffff1673ffffffffffffffffffffffffffffffffffffffff16634000aea085846107d987610af3565b6040518463ffffffff1660e01b8152600401808473ffffffffffffffffffffffffffffffffffffffff16815260200183815260200180602001828103825283818151815260200191508051906020019080838360005b8381101561084a57808201518184015260208101905061082f565b50505050905090810190601f1680156108775780820380516001836020036101000a031916815260200191505b50945050505050602060405180830381600087803b15801561089857600080fd5b505af11580156108ac573d6000803e3d6000fd5b505050506040513d60208110156108c257600080fd5b8101908080519060200190929190505050610928576040517f08c379a00000000000000000000000000000000000000000000000000000000081526004018080602001828103825260238152602001806111806023913960400191505060405180910390fd5b60016004600082825401925050819055509392505050565b6000600260009054906101000a900473ffffffffffffffffffffffffffffffffffffffff16905090565b6109726110f8565b6109828560800151610100610c74565b508385600001818152505082856020019073ffffffffffffffffffffffffffffffffffffffff16908173ffffffffffffffffffffffffffffffffffffffff16815250508185604001907bffffffffffffffffffffffffffffffffffffffffffffffffffffffff191690817bffffffffffffffffffffffffffffffffffffffffffffffffffffffff191681525050849050949350505050565b610a278260038351610cc8565b610a3a8183610e0d90919063ffffffff16565b505050565b610a4b82600083610cc8565b5050565b7fffffffffffffffffffffffffffffffffffffffffffffffff0000000000000000811215610a8657610a818282610e2f565b610aef565b67ffffffffffffffff811315610aa557610aa08282610e9d565b610aee565b60008112610abe57610ab982600083610cc8565b610aed565b610aec826001837fffffffffffffffffffffffffffffffffffffffffffffffffffffffffffffffff03610cc8565b5b5b5b5050565b6060634042994660e01b60008084600001518560200151866040015187606001516001896080015160000151604051602401808973ffffffffffffffffffffffffffffffffffffffff1681526020018881526020018781526020018673ffffffffffffffffffffffffffffffffffffffff168152602001857bffffffffffffffffffffffffffffffffffffffffffffffffffffffff1916815260200184815260200183815260200180602001828103825283818151815260200191508051906020019080838360005b83811015610bd7578082015181840152602081019050610bbc565b50505050905090810190601f168015610c045780820380516001836020036101000a031916815260200191505b509950505050505050505050604051602081830303815290604052907bffffffffffffffffffffffffffffffffffffffffffffffffffffffff19166020820180517bffffffffffffffffffffffffffffffffffffffffffffffffffffffff83818316178352505050509050919050565b610c7c611165565b600060208381610c8857fe5b0614610ca15760208281610c9857fe5b06602003820191505b81836020018181525050604051808452600081528281016020016040525082905092915050565b60178111610cf557610cef8160058460ff16901b60ff161784610ee990919063ffffffff16565b50610e08565b60ff8111610d3757610d1a601860058460ff16901b1784610ee990919063ffffffff16565b50610d3181600185610f099092919063ffffffff16565b50610e07565b61ffff8111610d7a57610d5d601960058460ff16901b1784610ee990919063ffffffff16565b50610d7481600285610f099092919063ffffffff16565b50610e06565b63ffffffff8111610dbf57610da2601a60058460ff16901b1784610ee990919063ffffffff16565b50610db981600485610f099092919063ffffffff16565b50610e05565b67ffffffffffffffff8111610e0457610deb601b60058460ff16901b1784610ee990919063ffffffff16565b50610e0281600885610f099092919063ffffffff16565b505b5b5b5b5b505050565b610e15611165565b610e2783846000015151848551610f2b565b905092915050565b610e4d60036005600660ff16901b1783610ee990919063ffffffff16565b50610e9982827fffffffffffffffffffffffffffffffffffffffffffffffffffffffffffffffff0360405160200180828152602001915050604051602081830303815290604052610fe4565b5050565b610ebb60026005600660ff16901b1783610ee990919063ffffffff16565b50610ee5828260405160200180828152602001915050604051602081830303815290604052610fe4565b5050565b610ef1611165565b610f018384600001515184611009565b905092915050565b610f11611165565b610f22848560000151518585611057565b90509392505050565b610f33611165565b8251821115610f4157600080fd5b84602001518285011115610f6c57610f6b856002610f6588602001518887016110b8565b026110d4565b5b600080865180518760208301019350808887011115610f8b5787860182525b60208701925050505b60208410610fb75780518252602082019150602081019050602084039350610f94565b60006001856020036101000a03905080198251168184511681811785525050879350505050949350505050565b610ff18260028351610cc8565b6110048183610e0d90919063ffffffff16565b505050565b611011611165565b8360200151831061102e5761102d8460028660200151026110d4565b5b835180516020858301018481538186141561104a576001820183525b5050508390509392505050565b61105f611165565b8460200151848301111561107d5761107c856002868501026110d4565b5b60006001836101000a03905085518386820101858319825116178152815185880111156110aa5784870182525b505085915050949350505050565b6000818311156110ca578290506110ce565b8190505b92915050565b6060826000015190506110e78383610c74565b506110f28382610e0d565b50505050565b6040518060a0016040528060008019168152602001600073ffffffffffffffffffffffffffffffffffffffff16815260200160007bffffffffffffffffffffffffffffffffffffffffffffffffffffffff191681526020016000815260200161115f611165565b81525090565b60405180604001604052806060815260200160008152509056fe756e61626c6520746f207472616e73666572416e6443616c6c20746f206f7261636c65536f75726365206d75737420626520746865206f7261636c65206f66207468652072657175657374a26469706673582212206b07345c9e0779469ebf681ecdb3e46fe36186c8046c53b0599b696097a1e99d64736f6c634300060c0033",
  "immutableReferences": {},
  "source": "// SPDX-License-Identifier: MIT\n\npragma solidity ^0.6.6;\n\nimport \"@chainlink/contracts/src/v0.6/ChainlinkClient.sol\";\n\ncontract GCPPOLYapi is ChainlinkClient {\n    uint256 public volume;\n    address private oracle;\n    bytes32 private jobId;\n    uint256 private fee;\n    uint256 public durationInSeconds;\n\n    /**\n     * Network: Kovan\n     * Chainlink - 0x2f90A6D021db21e1B2A077c5a37B3C7E75D15b7e\n     * Chainlink - 29fa9aa13bf1468788b7cc4a500a45b8\n     * Fee: 0.1 LINK\n     */\n    constructor() public {\n        setPublicChainlinkToken();\n        oracle = 0x2f90A6D021db21e1B2A077c5a37B3C7E75D15b7e;\n        jobId = \"29fa9aa13bf1468788b7cc4a500a45b8\";\n        fee = 0.1 * 10**18; // 0.1 LINK\n        durationInSeconds = 10;\n    }\n\n    /**\n     * Create a Chainlink request to retrieve API response, find the target\n     * data, then multiply by 1000000000000000000 (to remove decimal places from data).\n     ************************************************************************************\n     *                                    STOP!                                         *\n     *         THIS FUNCTION WILL FAIL IF THIS CONTRACT DOES NOT OWN LINK               *\n     *         ----------------------------------------------------------               *\n     *         Learn how to obtain testnet LINK and fund this contract:                 *\n     *         ------- https://docs.chain.link/docs/acquire-link --------               *\n     *         ---- https://docs.chain.link/docs/fund-your-contract -----               *\n     *                                                                                  *\n     ************************************************************************************/\n    function requestVolumeData() public returns (bytes32 requestId) {\n        Chainlink.Request memory request =\n            buildChainlinkRequest(jobId, address(this), this.fulfill.selector);\n\n        // Set the URL to perform the GET request on\n        request.addUint(\"until\", block.timestamp + durationInSeconds);\n        request.add(\"get\", \"http://silkandsilt.com\");\n\n        // Set the path to find the desired data in the API response, where the response format is:\n        // {\"RAW\":\n        //      {\"ETH\":\n        //          {\"USD\":\n        //              {\n        //                  ...,\n        //                  \"VOLUME24HOUR\": xxx.xxx,\n        //                  ...\n        //              }\n        //          }\n        //      }\n        //  }\n\n        // Multiply the result by 1000000000000000000 to remove decimals\n        request.add(\"path\", \"/\");\n\n        int256 timesAmount = 10**7;\n        request.addInt(\"times\", timesAmount);\n        // Sends the request\n        return sendChainlinkRequestTo(oracle, request, fee);\n    }\n\n    /**\n     * Receive the response in the form of uint256\n     */\n\n    function fulfill(bytes32 _requestId, uint256 _volume)\n        public\n        recordChainlinkFulfillment(_requestId)\n    {\n        volume = _volume;\n    }\n\n    /**\n     * Withdraw LINK from this contract\n     *\n     * NOTE: DO NOT USE THIS IN PRODUCTION AS IT CAN BE CALLED BY ANY ADDRESS.\n     * THIS IS PURELY FOR EXAMPLE PURPOSES ONLY.\n     */\n    function withdrawLink() external {\n        LinkTokenInterface linkToken =\n            LinkTokenInterface(chainlinkTokenAddress());\n        require(\n            linkToken.transfer(msg.sender, linkToken.balanceOf(address(this))),\n            \"Unable to transfer\"\n        );\n    }\n}\n",
  "sourcePath": "/Users/ghost/Sites/GCPPOLY/contracts/GCPPOLYapi.sol",
  "compiler": {
    "name": "solc",
    "version": "0.6.12+commit.27d51765.Emscripten.clang"
  },
  "schemaVersion": "3.4.1",
  "updatedAt": "2021-06-09T15:57:17.801Z",
  "devdoc": {
    "kind": "dev",
    "methods": {},
    "version": 1
  },
  "userdoc": {
    "kind": "user",
    "methods": {
      "constructor": "Network: Kovan Chainlink - 0x2f90A6D021db21e1B2A077c5a37B3C7E75D15b7e Chainlink - 29fa9aa13bf1468788b7cc4a500a45b8 Fee: 0.1 LINK",
      "fulfill(bytes32,uint256)": {
        "notice": "Receive the response in the form of uint256"
      },
      "requestVolumeData()": {
        "notice": "Create a Chainlink request to retrieve API response, find the target data, then multiply by 1000000000000000000 (to remove decimal places from data).************************************************************************************                                    STOP!                                         *         THIS FUNCTION WILL FAIL IF THIS CONTRACT DOES NOT OWN LINK               *         ----------------------------------------------------------               *         Learn how to obtain testnet LINK and fund this contract:                 *         ------- https://docs.chain.link/docs/acquire-link --------               *         ---- https://docs.chain.link/docs/fund-your-contract -----               *                                                                                  ************************************************************************************"
      },
      "withdrawLink()": {
        "notice": "Withdraw LINK from this contract NOTE: DO NOT USE THIS IN PRODUCTION AS IT CAN BE CALLED BY ANY ADDRESS. THIS IS PURELY FOR EXAMPLE PURPOSES ONLY."
      }
    },
    "version": 1
  }
}